{
  "contractName": "TokenToEther",
  "abi": [
    {
      "constant": true,
      "inputs": [
        {
          "name": "amount",
          "type": "uint256"
        },
        {
          "name": "rate",
          "type": "uint256"
        }
      ],
      "name": "convert",
      "outputs": [
        {
          "name": "convertedAmount",
          "type": "uint256"
        }
      ],
      "payable": false,
      "stateMutability": "pure",
      "type": "function"
    }
  ],
  "bytecode": "0x60d061002f600b82828239805160001a6073146000811461001f57610021565bfe5b5030600052607381538281f30073000000000000000000000000000000000000000030146080604052600436106056576000357c0100000000000000000000000000000000000000000000000000000000900463ffffffff16806396e4ee3d14605b575b600080fd5b608160048036038101908080359060200190929190803590602001909291905050506097565b6040518082815260200191505060405180910390f35b60008183029050929150505600a165627a7a7230582072650eaf5d1b596a38b1fd987b3fb3c2bc3d2a0de5801d659dde279638c56b7f0029",
  "source": "pragma solidity ^0.4.24;\n\nlibrary TokenToEther{\n\tfunction convert(uint amount,uint rate) public pure returns (uint convertedAmount){\n\t\treturn amount * rate;\n\t}\n}\n",
  "sourcePath": "/home/marcos/sc-example-bitcoin-day/InfuyToken/contracts/TokenToEther.sol",
  "compiler": {
    "name": "solc",
    "version": "0.4.24+commit.e67f0147.Emscripten.clang"
  },
  "schemaVersion": "2.0.1",
  "updatedAt": "2019-05-23T17:50:25.220Z"
}